{
  "contractName": "ERC20TokenGenerator",
  "abi": [
    {
      "inputs": [],
      "stateMutability": "nonpayable",
      "type": "constructor"
    },
    {
      "anonymous": false,
      "inputs": [
        {
          "indexed": false,
          "internalType": "address",
          "name": "feeToSetter",
          "type": "address"
        }
      ],
      "name": "ChangedFeeToSetter",
      "type": "event"
    },
    {
      "anonymous": false,
      "inputs": [
        {
          "indexed": false,
          "internalType": "address",
          "name": "token",
          "type": "address"
        }
      ],
      "name": "Created",
      "type": "event"
    },
    {
      "inputs": [
        {
          "internalType": "string",
          "name": "",
          "type": "string"
        }
      ],
      "name": "allTokenNames",
      "outputs": [
        {
          "internalType": "bool",
          "name": "",
          "type": "bool"
        }
      ],
      "stateMutability": "view",
      "type": "function",
      "constant": true
    },
    {
      "inputs": [
        {
          "internalType": "string",
          "name": "",
          "type": "string"
        }
      ],
      "name": "allTokenSymbols",
      "outputs": [
        {
          "internalType": "bool",
          "name": "",
          "type": "bool"
        }
      ],
      "stateMutability": "view",
      "type": "function",
      "constant": true
    },
    {
      "inputs": [
        {
          "internalType": "uint256",
          "name": "",
          "type": "uint256"
        }
      ],
      "name": "allTokens",
      "outputs": [
        {
          "internalType": "address",
          "name": "",
          "type": "address"
        }
      ],
      "stateMutability": "view",
      "type": "function",
      "constant": true
    },
    {
      "inputs": [],
      "name": "feeTo",
      "outputs": [
        {
          "internalType": "address",
          "name": "",
          "type": "address"
        }
      ],
      "stateMutability": "view",
      "type": "function",
      "constant": true
    },
    {
      "inputs": [],
      "name": "feeToSetter",
      "outputs": [
        {
          "internalType": "address",
          "name": "",
          "type": "address"
        }
      ],
      "stateMutability": "view",
      "type": "function",
      "constant": true
    },
    {
      "inputs": [
        {
          "internalType": "string",
          "name": "",
          "type": "string"
        }
      ],
      "name": "nameToAddress",
      "outputs": [
        {
          "internalType": "address",
          "name": "",
          "type": "address"
        }
      ],
      "stateMutability": "view",
      "type": "function",
      "constant": true
    },
    {
      "inputs": [],
      "name": "getBalance",
      "outputs": [
        {
          "internalType": "uint256",
          "name": "",
          "type": "uint256"
        }
      ],
      "stateMutability": "view",
      "type": "function",
      "constant": true
    },
    {
      "inputs": [],
      "name": "allTokensLength",
      "outputs": [
        {
          "internalType": "uint256",
          "name": "",
          "type": "uint256"
        }
      ],
      "stateMutability": "view",
      "type": "function",
      "constant": true
    },
    {
      "inputs": [
        {
          "internalType": "address",
          "name": "_feeToSetter",
          "type": "address"
        }
      ],
      "name": "setFeeToSetter",
      "outputs": [],
      "stateMutability": "nonpayable",
      "type": "function"
    },
    {
      "inputs": [
        {
          "internalType": "string",
          "name": "_name",
          "type": "string"
        },
        {
          "internalType": "string",
          "name": "_symbol",
          "type": "string"
        },
        {
          "internalType": "uint256",
          "name": "_totalSupply",
          "type": "uint256"
        }
      ],
      "name": "createToken",
      "outputs": [],
      "stateMutability": "nonpayable",
      "type": "function"
    }
  ],
  "bytecode": "0x608060405234801561001057600080fd5b5033600160006101000a81548173ffffffffffffffffffffffffffffffffffffffff021916908373ffffffffffffffffffffffffffffffffffffffff16021790555061271a806100616000396000f3fe608060405234801561001057600080fd5b506004361061009e5760003560e01c80635b060530116100665780635b0605301461015d578063634282af14610179578063a2e74af6146101a9578063cfa16532146101c5578063dbb80e42146101f55761009e565b8063017e7e58146100a357806308d88aad146100c1578063094b7415146100f157806312065fe01461010f5780634e6079761461012d575b600080fd5b6100ab610213565b6040516100b8919061090d565b60405180910390f35b6100db60048036038101906100d69190610a82565b610237565b6040516100e8919061090d565b60405180910390f35b6100f9610280565b604051610106919061090d565b60405180910390f35b6101176102a6565b6040516101249190610ae4565b60405180910390f35b61014760048036038101906101429190610a82565b6102ae565b6040516101549190610b1a565b60405180910390f35b61017760048036038101906101729190610bc1565b6102e4565b005b610193600480360381019061018e9190610c56565b610732565b6040516101a0919061090d565b60405180910390f35b6101c360048036038101906101be9190610caf565b610771565b005b6101df60048036038101906101da9190610a82565b61087c565b6040516101ec9190610b1a565b60405180910390f35b6101fd6108b2565b60405161020a9190610ae4565b60405180910390f35b60008054906101000a900473ffffffffffffffffffffffffffffffffffffffff1681565b6005818051602081018201805184825260208301602085012081835280955050505050506000915054906101000a900473ffffffffffffffffffffffffffffffffffffffff1681565b600160009054906101000a900473ffffffffffffffffffffffffffffffffffffffff1681565b600047905090565b6004818051602081018201805184825260208301602085012081835280955050505050506000915054906101000a900460ff1681565b600085858080601f016020809104026020016040519081016040528093929190818152602001838380828437600081840152601f19601f820116905080830192505050505050509050600084848080601f016020809104026020016040519081016040528093929190818152602001838380828437600081840152601f19601f82011690508083019250505050505050905060008251116103ba576040517f08c379a00000000000000000000000000000000000000000000000000000000081526004016103b190610d39565b60405180910390fd5b60008151116103fe576040517f08c379a00000000000000000000000000000000000000000000000000000000081526004016103f590610da5565b60405180910390fd5b60008311610441576040517f08c379a000000000000000000000000000000000000000000000000000000000815260040161043890610e11565b60405180910390fd5b60038787604051610453929190610e61565b908152602001604051809103902060009054906101000a900460ff16156104af576040517f08c379a00000000000000000000000000000000000000000000000000000000081526004016104a690610ec6565b60405180910390fd5b600485856040516104c1929190610e61565b908152602001604051809103902060009054906101000a900460ff161561051d576040517f08c379a000000000000000000000000000000000000000000000000000000000815260040161051490610f32565b60405180910390fd5b600060405161052b906108bf565b604051809103906000f080158015610547573d6000803e3d6000fd5b5090508073ffffffffffffffffffffffffffffffffffffffff1663b119490e89898989896040518663ffffffff1660e01b815260040161058b959493929190610f7f565b600060405180830381600087803b1580156105a557600080fd5b505af11580156105b9573d6000803e3d6000fd5b505050506002819080600181540180825580915050600190039060005260206000200160009091909190916101000a81548173ffffffffffffffffffffffffffffffffffffffff021916908373ffffffffffffffffffffffffffffffffffffffff1602179055508060058989604051610633929190610e61565b908152602001604051809103902060006101000a81548173ffffffffffffffffffffffffffffffffffffffff021916908373ffffffffffffffffffffffffffffffffffffffff160217905550600160038989604051610693929190610e61565b908152602001604051809103902060006101000a81548160ff0219169083151502179055506001600487876040516106cc929190610e61565b908152602001604051809103902060006101000a81548160ff0219169083151502179055507f1449abf21e49fd025f33495e77f7b1461caefdd3d4bb646424a3f445c4576a5b81604051610720919061090d565b60405180910390a15050505050505050565b6002818154811061074257600080fd5b906000526020600020016000915054906101000a900473ffffffffffffffffffffffffffffffffffffffff1681565b600160009054906101000a900473ffffffffffffffffffffffffffffffffffffffff1673ffffffffffffffffffffffffffffffffffffffff163373ffffffffffffffffffffffffffffffffffffffff1614610801576040517f08c379a00000000000000000000000000000000000000000000000000000000081526004016107f890611014565b60405180910390fd5b80600160006101000a81548173ffffffffffffffffffffffffffffffffffffffff021916908373ffffffffffffffffffffffffffffffffffffffff1602179055507f0e6dd28da64cf1ae2ade33a18b2a1635ea1ff6b0bc5e73d1d2ae0f18865668ac81604051610871919061090d565b60405180910390a150565b6003818051602081018201805184825260208301602085012081835280955050505050506000915054906101000a900460ff1681565b6000600280549050905090565b6116b08061103583390190565b600073ffffffffffffffffffffffffffffffffffffffff82169050919050565b60006108f7826108cc565b9050919050565b610907816108ec565b82525050565b600060208201905061092260008301846108fe565b92915050565b6000604051905090565b600080fd5b600080fd5b600080fd5b600080fd5b6000601f19601f8301169050919050565b7f4e487b7100000000000000000000000000000000000000000000000000000000600052604160045260246000fd5b61098f82610946565b810181811067ffffffffffffffff821117156109ae576109ad610957565b5b80604052505050565b60006109c1610928565b90506109cd8282610986565b919050565b600067ffffffffffffffff8211156109ed576109ec610957565b5b6109f682610946565b9050602081019050919050565b82818337600083830152505050565b6000610a25610a20846109d2565b6109b7565b905082815260208101848484011115610a4157610a40610941565b5b610a4c848285610a03565b509392505050565b600082601f830112610a6957610a6861093c565b5b8135610a79848260208601610a12565b91505092915050565b600060208284031215610a9857610a97610932565b5b600082013567ffffffffffffffff811115610ab657610ab5610937565b5b610ac284828501610a54565b91505092915050565b6000819050919050565b610ade81610acb565b82525050565b6000602082019050610af96000830184610ad5565b92915050565b60008115159050919050565b610b1481610aff565b82525050565b6000602082019050610b2f6000830184610b0b565b92915050565b600080fd5b600080fd5b60008083601f840112610b5557610b5461093c565b5b8235905067ffffffffffffffff811115610b7257610b71610b35565b5b602083019150836001820283011115610b8e57610b8d610b3a565b5b9250929050565b610b9e81610acb565b8114610ba957600080fd5b50565b600081359050610bbb81610b95565b92915050565b600080600080600060608688031215610bdd57610bdc610932565b5b600086013567ffffffffffffffff811115610bfb57610bfa610937565b5b610c0788828901610b3f565b9550955050602086013567ffffffffffffffff811115610c2a57610c29610937565b5b610c3688828901610b3f565b93509350506040610c4988828901610bac565b9150509295509295909350565b600060208284031215610c6c57610c6b610932565b5b6000610c7a84828501610bac565b91505092915050565b610c8c816108ec565b8114610c9757600080fd5b50565b600081359050610ca981610c83565b92915050565b600060208284031215610cc557610cc4610932565b5b6000610cd384828501610c9a565b91505092915050565b600082825260208201905092915050565b7f4e616d652063616e6e6f7420626520656d707479000000000000000000000000600082015250565b6000610d23601483610cdc565b9150610d2e82610ced565b602082019050919050565b60006020820190508181036000830152610d5281610d16565b9050919050565b7f53796d626f6c2063616e6e6f7420626520656d70747900000000000000000000600082015250565b6000610d8f601683610cdc565b9150610d9a82610d59565b602082019050919050565b60006020820190508181036000830152610dbe81610d82565b9050919050565b7f496e76616c696420746f74616c20737570706c79000000000000000000000000600082015250565b6000610dfb601483610cdc565b9150610e0682610dc5565b602082019050919050565b60006020820190508181036000830152610e2a81610dee565b9050919050565b600081905092915050565b6000610e488385610e31565b9350610e55838584610a03565b82840190509392505050565b6000610e6e828486610e3c565b91508190509392505050565b7f546f6b656e206e616d6520616c72656164792065786973747300000000000000600082015250565b6000610eb0601983610cdc565b9150610ebb82610e7a565b602082019050919050565b60006020820190508181036000830152610edf81610ea3565b9050919050565b7f546f6b656e2073796d626f6c20616c7265616479206578697374730000000000600082015250565b6000610f1c601b83610cdc565b9150610f2782610ee6565b602082019050919050565b60006020820190508181036000830152610f4b81610f0f565b9050919050565b6000610f5e8385610cdc565b9350610f6b838584610a03565b610f7483610946565b840190509392505050565b60006060820190508181036000830152610f9a818789610f52565b90508181036020830152610faf818587610f52565b9050610fbe6040830184610ad5565b9695505050505050565b7f556e617574686f72697a65642046656520546f20536574746572000000000000600082015250565b6000610ffe601a83610cdc565b915061100982610fc8565b602082019050919050565b6000602082019050818103600083015261102d81610ff1565b905091905056fe608060405234801561001057600080fd5b50611690806100206000396000f3fe608060405234801561001057600080fd5b50600436106100ea5760003560e01c806370a082311161008c578063a9059cbb11610066578063a9059cbb14610263578063b119490e14610293578063d505accf146102af578063dd62ed3e146102cb576100ea565b806370a08231146101e55780637ecebe001461021557806395d89b4114610245576100ea565b806323b872dd116100c857806323b872dd1461015b57806330adf81f1461018b578063313ce567146101a95780633644e515146101c7576100ea565b806306fdde03146100ef578063095ea7b31461010d57806318160ddd1461013d575b600080fd5b6100f76102fb565b6040516101049190610d64565b60405180910390f35b61012760048036038101906101229190610e24565b610389565b6040516101349190610e7f565b60405180910390f35b6101456103a0565b6040516101529190610ea9565b60405180910390f35b61017560048036038101906101709190610ec4565b6103a6565b6040516101829190610e7f565b60405180910390f35b610193610571565b6040516101a09190610f30565b60405180910390f35b6101b1610598565b6040516101be9190610f67565b60405180910390f35b6101cf61059d565b6040516101dc9190610f30565b60405180910390f35b6101ff60048036038101906101fa9190610f82565b6105a3565b60405161020c9190610ea9565b60405180910390f35b61022f600480360381019061022a9190610f82565b6105bb565b60405161023c9190610ea9565b60405180910390f35b61024d6105d3565b60405161025a9190610d64565b60405180910390f35b61027d60048036038101906102789190610e24565b610661565b60405161028a9190610e7f565b60405180910390f35b6102ad60048036038101906102a89190611014565b610678565b005b6102c960048036038101906102c49190611101565b6106aa565b005b6102e560048036038101906102e091906111a3565b6108d2565b6040516102f29190610ea9565b60405180910390f35b6000805461030890611212565b80601f016020809104026020016040519081016040528092919081815260200182805461033490611212565b80156103815780601f1061035657610100808354040283529160200191610381565b820191906000526020600020905b81548152906001019060200180831161036457829003601f168201915b505050505081565b60006103963384846108f7565b6001905092915050565b60025481565b60007fffffffffffffffffffffffffffffffffffffffffffffffffffffffffffffffff600460008673ffffffffffffffffffffffffffffffffffffffff1673ffffffffffffffffffffffffffffffffffffffff16815260200190815260200160002060003373ffffffffffffffffffffffffffffffffffffffff1673ffffffffffffffffffffffffffffffffffffffff168152602001908152602001600020541461055b576104da82600460008773ffffffffffffffffffffffffffffffffffffffff1673ffffffffffffffffffffffffffffffffffffffff16815260200190815260200160002060003373ffffffffffffffffffffffffffffffffffffffff1673ffffffffffffffffffffffffffffffffffffffff168152602001908152602001600020546109e290919063ffffffff16565b600460008673ffffffffffffffffffffffffffffffffffffffff1673ffffffffffffffffffffffffffffffffffffffff16815260200190815260200160002060003373ffffffffffffffffffffffffffffffffffffffff1673ffffffffffffffffffffffffffffffffffffffff168152602001908152602001600020819055505b610566848484610a3b565b600190509392505050565b7f6e71edae12b1b97f4d1f60370fef10105fa2faae0126114a169c64845d6126c960001b81565b601281565b60055481565b60036020528060005260406000206000915090505481565b60066020528060005260406000206000915090505481565b600180546105e090611212565b80601f016020809104026020016040519081016040528092919081815260200182805461060c90611212565b80156106595780601f1061062e57610100808354040283529160200191610659565b820191906000526020600020905b81548152906001019060200180831161063c57829003601f168201915b505050505081565b600061066e338484610a3b565b6001905092915050565b848460009190610689929190610c28565b5082826001919061069b929190610c28565b50806002819055505050505050565b428410156106ed576040517f08c379a00000000000000000000000000000000000000000000000000000000081526004016106e490611290565b60405180910390fd5b60006005547f6e71edae12b1b97f4d1f60370fef10105fa2faae0126114a169c64845d6126c960001b898989600660008e73ffffffffffffffffffffffffffffffffffffffff1673ffffffffffffffffffffffffffffffffffffffff1681526020019081526020016000206000815480929190610769906112df565b919050558a60405160200161078396959493929190611337565b604051602081830303815290604052805190602001206040516020016107aa929190611410565b6040516020818303038152906040528051906020012090506000600182868686604051600081526020016040526040516107e79493929190611447565b6020604051602081039080840390855afa158015610809573d6000803e3d6000fd5b505050602060405103519050600073ffffffffffffffffffffffffffffffffffffffff168173ffffffffffffffffffffffffffffffffffffffff161415801561087d57508873ffffffffffffffffffffffffffffffffffffffff168173ffffffffffffffffffffffffffffffffffffffff16145b6108bc576040517f08c379a00000000000000000000000000000000000000000000000000000000081526004016108b3906114d8565b60405180910390fd5b6108c78989896108f7565b505050505050505050565b6004602052816000526040600020602052806000526040600020600091509150505481565b80600460008573ffffffffffffffffffffffffffffffffffffffff1673ffffffffffffffffffffffffffffffffffffffff16815260200190815260200160002060008473ffffffffffffffffffffffffffffffffffffffff1673ffffffffffffffffffffffffffffffffffffffff168152602001908152602001600020819055508173ffffffffffffffffffffffffffffffffffffffff168373ffffffffffffffffffffffffffffffffffffffff167f8c5be1e5ebec7d5bd14f71427d1e84f3dd0314c0f7b2291e5b200ac8c7c3b925836040516109d59190610ea9565b60405180910390a3505050565b60008282846109f191906114f8565b9150811115610a35576040517f08c379a0000000000000000000000000000000000000000000000000000000008152600401610a2c90611578565b60405180910390fd5b92915050565b610a8d81600360008673ffffffffffffffffffffffffffffffffffffffff1673ffffffffffffffffffffffffffffffffffffffff168152602001908152602001600020546109e290919063ffffffff16565b600360008573ffffffffffffffffffffffffffffffffffffffff1673ffffffffffffffffffffffffffffffffffffffff16815260200190815260200160002081905550610b2281600360008573ffffffffffffffffffffffffffffffffffffffff1673ffffffffffffffffffffffffffffffffffffffff16815260200190815260200160002054610bcf90919063ffffffff16565b600360008473ffffffffffffffffffffffffffffffffffffffff1673ffffffffffffffffffffffffffffffffffffffff168152602001908152602001600020819055508173ffffffffffffffffffffffffffffffffffffffff168373ffffffffffffffffffffffffffffffffffffffff167fddf252ad1be2c89b69c2b068fc378daa952ba7f163c4a11628f55a4df523b3ef83604051610bc29190610ea9565b60405180910390a3505050565b6000828284610bde9190611598565b9150811015610c22576040517f08c379a0000000000000000000000000000000000000000000000000000000008152600401610c199061163a565b60405180910390fd5b92915050565b828054610c3490611212565b90600052602060002090601f016020900481019282610c565760008555610c9d565b82601f10610c6f57803560ff1916838001178555610c9d565b82800160010185558215610c9d579182015b82811115610c9c578235825591602001919060010190610c81565b5b509050610caa9190610cae565b5090565b5b80821115610cc7576000816000905550600101610caf565b5090565b600081519050919050565b600082825260208201905092915050565b60005b83811015610d05578082015181840152602081019050610cea565b83811115610d14576000848401525b50505050565b6000601f19601f8301169050919050565b6000610d3682610ccb565b610d408185610cd6565b9350610d50818560208601610ce7565b610d5981610d1a565b840191505092915050565b60006020820190508181036000830152610d7e8184610d2b565b905092915050565b600080fd5b600080fd5b600073ffffffffffffffffffffffffffffffffffffffff82169050919050565b6000610dbb82610d90565b9050919050565b610dcb81610db0565b8114610dd657600080fd5b50565b600081359050610de881610dc2565b92915050565b6000819050919050565b610e0181610dee565b8114610e0c57600080fd5b50565b600081359050610e1e81610df8565b92915050565b60008060408385031215610e3b57610e3a610d86565b5b6000610e4985828601610dd9565b9250506020610e5a85828601610e0f565b9150509250929050565b60008115159050919050565b610e7981610e64565b82525050565b6000602082019050610e946000830184610e70565b92915050565b610ea381610dee565b82525050565b6000602082019050610ebe6000830184610e9a565b92915050565b600080600060608486031215610edd57610edc610d86565b5b6000610eeb86828701610dd9565b9350506020610efc86828701610dd9565b9250506040610f0d86828701610e0f565b9150509250925092565b6000819050919050565b610f2a81610f17565b82525050565b6000602082019050610f456000830184610f21565b92915050565b600060ff82169050919050565b610f6181610f4b565b82525050565b6000602082019050610f7c6000830184610f58565b92915050565b600060208284031215610f9857610f97610d86565b5b6000610fa684828501610dd9565b91505092915050565b600080fd5b600080fd5b600080fd5b60008083601f840112610fd457610fd3610faf565b5b8235905067ffffffffffffffff811115610ff157610ff0610fb4565b5b60208301915083600182028301111561100d5761100c610fb9565b5b9250929050565b6000806000806000606086880312156110305761102f610d86565b5b600086013567ffffffffffffffff81111561104e5761104d610d8b565b5b61105a88828901610fbe565b9550955050602086013567ffffffffffffffff81111561107d5761107c610d8b565b5b61108988828901610fbe565b9350935050604061109c88828901610e0f565b9150509295509295909350565b6110b281610f4b565b81146110bd57600080fd5b50565b6000813590506110cf816110a9565b92915050565b6110de81610f17565b81146110e957600080fd5b50565b6000813590506110fb816110d5565b92915050565b600080600080600080600060e0888a0312156111205761111f610d86565b5b600061112e8a828b01610dd9565b975050602061113f8a828b01610dd9565b96505060406111508a828b01610e0f565b95505060606111618a828b01610e0f565b94505060806111728a828b016110c0565b93505060a06111838a828b016110ec565b92505060c06111948a828b016110ec565b91505092959891949750929550565b600080604083850312156111ba576111b9610d86565b5b60006111c885828601610dd9565b92505060206111d985828601610dd9565b9150509250929050565b7f4e487b7100000000000000000000000000000000000000000000000000000000600052602260045260246000fd5b6000600282049050600182168061122a57607f821691505b6020821081141561123e5761123d6111e3565b5b50919050565b7f556e697377617056323a20455850495245440000000000000000000000000000600082015250565b600061127a601283610cd6565b915061128582611244565b602082019050919050565b600060208201905081810360008301526112a98161126d565b9050919050565b7f4e487b7100000000000000000000000000000000000000000000000000000000600052601160045260246000fd5b60006112ea82610dee565b91507fffffffffffffffffffffffffffffffffffffffffffffffffffffffffffffffff82141561131d5761131c6112b0565b5b600182019050919050565b61133181610db0565b82525050565b600060c08201905061134c6000830189610f21565b6113596020830188611328565b6113666040830187611328565b6113736060830186610e9a565b6113806080830185610e9a565b61138d60a0830184610e9a565b979650505050505050565b600081905092915050565b7f1901000000000000000000000000000000000000000000000000000000000000600082015250565b60006113d9600283611398565b91506113e4826113a3565b600282019050919050565b6000819050919050565b61140a61140582610f17565b6113ef565b82525050565b600061141b826113cc565b915061142782856113f9565b60208201915061143782846113f9565b6020820191508190509392505050565b600060808201905061145c6000830187610f21565b6114696020830186610f58565b6114766040830185610f21565b6114836060830184610f21565b95945050505050565b7f556e697377617056323a20494e56414c49445f5349474e415455524500000000600082015250565b60006114c2601c83610cd6565b91506114cd8261148c565b602082019050919050565b600060208201905081810360008301526114f1816114b5565b9050919050565b600061150382610dee565b915061150e83610dee565b925082821015611521576115206112b0565b5b828203905092915050565b7f64732d6d6174682d7375622d756e646572666c6f770000000000000000000000600082015250565b6000611562601583610cd6565b915061156d8261152c565b602082019050919050565b6000602082019050818103600083015261159181611555565b9050919050565b60006115a382610dee565b91506115ae83610dee565b9250827fffffffffffffffffffffffffffffffffffffffffffffffffffffffffffffffff038211156115e3576115e26112b0565b5b828201905092915050565b7f64732d6d6174682d6164642d6f766572666c6f77000000000000000000000000600082015250565b6000611624601483610cd6565b915061162f826115ee565b602082019050919050565b6000602082019050818103600083015261165381611617565b905091905056fea26469706673582212204ca38cd7ce40309310efba51b603465e5f09f120ed55a306bf0b6579dd52f25664736f6c63430008080033a26469706673582212209490a8fe4954713dd3ee4ec9242ed060ae4273bcb5160a559089f798c49bdf7664736f6c63430008080033",
  "immutableReferences": {},
  "source": "// SPDX-License-Identifier: MIT\npragma solidity ^0.8.0;\n\nimport './interfaces/IERC20TokenGenerator.sol';\nimport './ERC20Token.sol';\n\ncontract ERC20TokenGenerator  {\n    address public feeTo;\n    address public feeToSetter;\n    address[] public allTokens;\n\n    mapping(string => bool) public allTokenNames;\n    mapping(string => bool) public allTokenSymbols;\n    mapping(string => address) public nameToAddress;\n\n    event Created(address token);\n    event ChangedFeeToSetter(address feeToSetter);\n\n    constructor() {\n        feeToSetter = msg.sender;\n    }\n\n    function getBalance() external view returns (uint256) {\n        return address(this).balance;\n    }\n\n    function allTokensLength() external view returns (uint256) {\n        return allTokens.length;\n    }\n\n    function setFeeToSetter(address _feeToSetter) external {\n        require(msg.sender == feeToSetter, \"Unauthorized Fee To Setter\");\n        feeToSetter = _feeToSetter;\n\n        emit ChangedFeeToSetter(_feeToSetter);\n    }\n\n    function createToken(string calldata _name, string calldata _symbol, uint256 _totalSupply) external {\n        // Validate inputs\n        bytes memory tempName = bytes(_name);\n        bytes memory tempSymbol = bytes(_symbol);\n        require(tempName.length > 0, \"Name cannot be empty\");\n        require(tempSymbol.length > 0, \"Symbol cannot be empty\");\n        require(_totalSupply > 0, \"Invalid total supply\");\n\n        // Check that name and symbols do not exist\n        require(!allTokenNames[_name], \"Token name already exists\");\n        require(!allTokenSymbols[_symbol], \"Token symbol already exists\");\n\n        // Create token contract\n        ERC20Token token = new ERC20Token();\n        // bytes memory bytecode = type(ERC20Token).creationCode;\n        // bytes32 salt = keccak256(abi.encodePacked(_name, _symbol, _totalSupply));\n        // assembly {\n        //     token := create2(0, add(bytecode, 32), mload(bytecode), salt) \n        // }\n\n        // Initialize contract with token params\n        token.initialize(_name, _symbol, _totalSupply);\n\n        // store token params\n        allTokens.push(address(token));\n        nameToAddress[_name] = address(token);\n        allTokenNames[_name] = true;\n        allTokenSymbols[_symbol] = true;\n        \n\n        emit Created(address(token));\n    }\n}",
  "sourcePath": "/Users/valentineorga/Desktop/Projects/Web3/EthTokenGen/contracts/ERC20TokenGenerator.sol",
  "compiler": {
    "name": "solc",
    "version": "0.8.8+commit.dddeac2f.Emscripten.clang"
  },
  "schemaVersion": "3.4.3",
  "updatedAt": "2022-06-06T05:35:27.921Z",
  "networkType": "ethereum",
  "devdoc": {
    "kind": "dev",
    "methods": {},
    "version": 1
  },
  "userdoc": {
    "kind": "user",
    "methods": {},
    "version": 1
  }
}